:03000000020800F3
:0C080000787FE4F6D8FD75810A020847F5
:0708F400010A0002080000E8
:0B08DF001208EA1208FC750AFA80FEFD
:0A08EA00E4F580F590F5A0F5B022CA
:1008CD005389F0438901E4F58CF58AD2A9D2AFD2D0
:0208DD008C226B
:0608FC00E4F50A0208CD3C
:03000B0002088C5C
:10088C00C0E0C0D075D000C007C28C30A010C2A090
:10089C00C374FF950AF509E49400F508800AD2A008
:1008AC00750800850A09E508FFC374FF9FF58CC322
:1008BC0074FF9509F58AC28DD28CD007D0D0D0E0C8
:0108CC0032F9
:10080C000208DFE493A3F8E493A34003F68001F21B
:10081C0008DFF48029E493A3F85407240CC8C333ED
:10082C00C4540F4420C8834004F456800146F6DFBC
:10083C00E4800B01020408102040809008F4E47E50
:10084C00019360BCA3FF543F30E509541FFEE493B1
:10085C00A360010ECF54C025E060A840B8E493A378
:10086C00FAE493A3F8E493A3C8C582C8CAC583CAA3
:10087C00F0A3C8C582C8CAC583CADFE9DEE780BE5B
:0108FB0000FC
:00000001FF
